S02B0000456C657661746F722050726F6A656374205769746820436F6D6D756E69636174696F6E2E737265638E
S1130000E9C0000006C1000004C1000002C10000F4
S113001000C10000FEC00000FCC00000FAC00000E7
S1130020F8C00000F6C00000F4C00000F2C00000F8
S1130030F0C00000EEC00000ECC00000EAC0000008
S1130040E8C00000E6C00000E4C00000E2C0000018
S1130050E0C00000DEC00000DCC00000DAC0000028
S1130060D8C00000D6C00000D4C00000D2C0000038
S1130070D0C00000CEC00000CCC00000CAC0000048
S1130080C8C00000C6C00000C4C00000C2C0000058
S1130090C0C00000BEC00000BCC00000BAC0000068
S11300A0B8C00000B6C00000B4C00000B2C0000078
S11300B0B0C00000AEC00000ACC00000AAC0000088
S11300C0A8C00000A6C00000A4C00000A2C0000098
S11300D0A0C000009EC000009CC000009AC00000A8
S11300E098C0000083038B038B038B0385038B036E
S11300F0870389038B038B038B038B038B038B0392
S11301008B038B038B038B038B038B038B038B037B
S11301108B038B038B038B038B038B038B038B036B
S11301208B038B038B038B038B038B038B038B035B
S11301308B038B038B038B038B038B038B038B034B
S11301408B038B038B038B038B038B038B038B033B
S11301508B038B038B038B038B038B038B038B032B
S11301608B038B037B038B038B038B037D038B0339
S11301707F0381038B038B038B038B038B038B0321
S11301808B038B038B038B038B038B038B038B03FB
S11301908B038B038B038B038B038B038B038B03EB
S11301A08B038B0373038B038B038B0375038B0309
S11301B0770379038B038B038B038B038B038B03F1
S11301C08B038B036D038B038B038B038D038B03D7
S11301D06F03710311241FBECFEFD1E2DEBFCDBF89
S11301E000E00CBF12E0A0E0B2E0E4EEF0E100E0D9
S11301F00BBF02C007900D92AE3EB107D9F722E0C3
S1130200AEEEB2E001C01D92AA3FB207E1F795D16C
S113021067C7F6CE8111FFCF08950F931F93CF9335
S1130220DF938C0160E270E0FCD3D82F8032A1F41C
S113023080E292E019D4C0E007C0F801EC0FF11D90
S1130240808190E00CD4CF5FCD17B8F38DE592E0B8
S11302500BD481E0DFDF0DC01F930F938FE592E095
S11302609F938F93E9D3C8014BD30F900F900F90B6
S11302700F90DF91CF911F910F910895EF92FF920C
S11302800F931F93CF93DF93CDB7DEB7A8970FB625
S1130290F894DEBF0FBECDBF1ED382E792E0BDDF70
S11302A000E010E005D28F3FE9F390ED980F9A300B
S11302B070F59801220F331F000F111F000F111F3B
S11302C0000F111F020F131F090F111D1F930F930E
S11302D08BEE92E09F938F931F9288E28F93CE01CF
S11302E001967C019F938F93EFD3FF92EF9280E866
S11302F092E09F938F93A0D361E080E0E4D2C701A2
S11303008CDF0FB6F894DEBF0FBECDBFCBCF8332E8
S113031011F5C801012E000CAA0BBB0B4091F00291
S11303205091F1026091F2027091F30284179507E3
S1130330A607B7070CF4B6CF409100025091010212
S11303406091020270910302481759076A077B07FC
S11303500CF4A8CF2DC08A3209F0A4CF1F921F92AB
S11303608BEE92E09F938F931F9288E28F938E017E
S11303700F5F1F4F1F930F93A7D31F930F9380E813
S113038092E09F938F9358D3A6D260E080E09BD2F3
S113039082E792E042DF61E080E095D2C8013DDF70
S11303A00FB6F894DEBF0FBECDBF00E010E07ACFE9
S11303B083E892E059D3C801A8960FB6F894DEBF3B
S11303C00FBECDBFDF91CF911F910F91FF90EF90A2
S11303D00895CF93DF931F92CDB7DEB7AC0185B1FB
S11303E08E7F85B990E00BC0FA01E90FF11D2081E1
S11303F02EBD0DB407FEFDCF2EB529839F5F961742
S113040098F385B1816085B90F90DF91CF910895FC
S11304102091EE023091EF0228173907ACF08217D1
S11304209307A4F02817390799F455D281E992E08B
S1130430F4DE2FEF87EA91E6215080409040E1F707
S113044000C0000085E0089581E0089582E00895E9
S113045085E008950F931F93CF93DF93CDB7DEB755
S113046060970FB6F894DEBF0FBECDBF182F092FCB
S113047032D260E080E027D28CE992E0CEDE61E007
S113048080E021D20F931F938BEE92E09F938F9382
S11304901F9280E18F938E010F5F1F4F1F930F9365
S11304A013D3C801BADE0FB6F894DEBF0FBECDBFBA
S11304B060960FB6F894DEBF0FBECDBFDF91CF912B
S11304C01F910F910895CF93DF93EC010FC0019614
S11304D09093EF028093EE02BDDF2FEF8BE792E95A
S11304E0215080409040E1F700C000008091EE026E
S11304F09091EF028C179D0754F3DF91CF910895EB
S1130500CF93DF93EC010FC001979093EF02809398
S1130510EE02A0DF2FEF8BE792E92150804090405C
S1130520E1F700C000008091EE029091EF02C8173D
S1130530D90754F3DF91CF910895CF93DF93CDB7CB
S1130540DEB76E970FB6F894DEBF0FBECDBF52D2A2
S113055061DE84B1876084B98CB581658CBD8BEA1A
S113056092E082D28CE0DAD1B6D184EC92E055DE0E
S11305708AEC92E079D22FEF83ED90E32150804012
S11305809040E1F700C0000061D078DE082F192FF9
S11305903FDF813019F0823009F1F7CF1F930F93B9
S11305A086ED92E09F938F93CE0101967C019F93F9
S11305B08F93C6D2F70101900020E9F73197BF016C
S11305C06E197F09C70105DF802F912F7CDF0F9003
S11305D00F900F900F900F900F90D7CF1F930F9302
S11305E081EE92E09F938F93CE0101967C019F93BD
S11305F08F93A6D2F70101900020E9F73197BF014C
S11306006E197F09C701E5DE802F912F79DF0F90E6
S11306100F900F900F900F900F90B7CF20E09FEEA8
S113062010C090930801E9EFF0E03197F1F700C0B2
S11306300000809106018F708F3029F4990F9F5F1D
S11306402F5F243070F3907F890F089580EF80939B
S1130650070108958FE080930801809106018F704F
S11306608F30C1F789EF90E00197F1F700C00000E7
S11306708FE080930801809106018F708F3051F7CD
S113068008958FE080930801809106018F708F3068
S1130690C1F389EF90E00197F1F700C000008FE00B
S11306A080930801809106018F708F3051F3089573
S11306B0D1DF89EF90E00197F1F700C00000E1DF9E
S11306C0ADDF90E0FC01E757F109E837F10518F5D3
S11306D08827EE58FF4F8F4F9CC18AE2089584E328
S11306E0089581E3089580E3089588E3089585E3F8
S11306F0089582E3089583E2089589E3089586E3E3
S1130700089583E3089584E4089583E4089582E4D6
S1130710089581E408958AE7089587E3089585B1EB
S1130720806285B9000085B18F7D85B90895CF9326
S1130730C82F662331F0E2E0F1E080818064808399
S113074005C0E2E0F1E080818F7B808385B18F7EFC
S113075085B98DB180628DB983B3806283BB8DB15D
S113076088608DB9E1E0F1E0808188608083E2E017
S1130770F1E08081877F80838EB1877F8EB984B3D7
S11307808F7D84BB8EB18F7D8EB9CC231CF4808188
S113079088608083C6FF03C08EB188608EB9C5FFB0
S11307A003C084B3806284BBC4FF03C08EB1806283
S11307B08EB9B5DFE2E0F1E08081877F80838EB17E
S11307C0877F8EB984B38F7D84BB8EB18F7D8EB9C4
S11307D0C3FF03C0808188608083C2FF03C08EB1E1
S11307E088608EB9C1FF03C084B3806284BBC0FF3C
S11307F003C08EB180628EB992DF8EB180628EB9F1
S113080084B3806284BB8EB188608EB9E2E0F1E08B
S1130810808188608083CF910895882331F0E2E05D
S1130820F1E080818064808305C0E2E0F1E08081B2
S11308308F7B808385B1806185B98DB18F7D8DB9C2
S113084083B38F7D83BB8DB1877F8DB9E1E0F1E008
S11308508081877F808385B1806285B90000659936
S113086002C080E001C080E1959980626399806450
S11308709091000193FD806895B19F7D95B900002A
S113088095B1906295B900006599816095998260EF
S1130890639984609091000193FD886095B19F7D78
S11308A095B9089580E0B9DF8823E4F300C000C05F
S11308B080E0B3CF0895CF93C82FF4DF60E08C2F8E
S11308C036DFCF910895611103C08058F4CF0895A5
S11308D08054F1CF089581E0EECF0895CF93C82FCF
S11308E0E1DFCA3041F4803410F480E401C080E0D8
S11308F08058E1DF03C061E08C2F19DFCF910895A8
S1130900CF93DF93FC0102C0E9DFFE01EF012196E2
S113091080818111F9CFDF91CF910895CF93C82FB2
S1130920E1E0F1E080818064808384B1806184B9F6
S113093084B1806284B98DB180628DB983B38062E1
S113094083BB8DB188608DB98081886080838FE995
S11309509FE00197F1F700C0000084B3806284BB7C
S11309608EB180628EB9DBDE81EE94E00197F1F7FF
S113097000C00000D4DE95E19A95F1F70000CFDEC7
S113098085E18A95F1F700008EB18F7D8EB9C7DEBF
S113099095E19A95F1F7000088E28DDF88E08BDF1E
S11309A09ADF86E088DF8C2F86DFCF9108959093BD
S11309B0C5008093C400E1ECF0E08081886180830D
S11309C0E2ECF0E080818E60808308959091C00015
S11309D095FFFCCF8093C60080E090E0089580915D
S11309E0C0008823E4F78091C6008D3009F48AE0C2
S11309F090E0089587E690E0DADFE4EFF2E082E148
S1130A0092E09383828384E092E09183808380E008
S1130A100895EE0FFF1F881F8BBF0790F691E02DFE
S1130A201994FC016150704001900110D8F7809531
S1130A3090958E0F9F1F0895CF93DF93CDB7DEB7A8
S1130A40AE014A5F5F4FFA0161917191AF018091EC
S1130A50F6029091F702A2D0DF91CF9108956091B0
S1130A60F6027091F702A2C20F931F93CF93DF9304
S1130A70E091F602F091F702238121FF1BC08C0163
S1130A80D0E0C0E0F80181918F016091F60270918D
S1130A90F702DB011896ED91FC911997882331F048
S1130AA01995892B79F3DFEFCFEFECCF8AE0199515
S1130AB0892B19F08FEF9FEF02C08D2F9C2FDF91B0
S1130AC0CF911F910F9108950F931F93CF93DF93AD
S1130AD0CDB7DEB72E970FB6F894DEBF0FBECDBFED
S1130AE00E891F89888D998D26E02C831A830983AA
S1130AF097FF02C080E090E801979E838D83AE014A
S1130B00445E5F4F6A8D7B8DCE01019647D04D8147
S1130B105E8157FD0AC02F813885421753070CF4B4
S1130B209A01F801E20FF31F10822E960FB6F89483
S1130B30DEBF0FBECDBFDF91CF911F910F910895FE
S1130B400F931F93CF93DF93CDB7DEB72E970FB6D6
S1130B50F894DEBF0FBECDBF0E891F8986E08C835B
S1130B601A8309838FEF9FE79E838D83AE01465ED0
S1130B705F4F688D798DCE01019610D0EF81F88595
S1130B80E00FF11F10822E960FB6F894DEBF0FBE51
S1130B90CDBFDF91CF911F910F9108952F923F9276
S1130BA04F925F926F927F928F929F92AF92BF9279
S1130BB0CF92DF92EF92FF920F931F93CF93DF9325
S1130BC0CDB7DEB72B970FB6F894DEBF0FBECDBFFF
S1130BD06C017B018A01FC0117821682838181FFEB
S1130BE0BFC1CE0101963C01F6019381F70193FD4B
S1130BF0859193FF81917F01882309F4ADC18532EA
S1130C0039F493FD859193FF81917F01853221F41D
S1130C10B60190E0CBD1E8CF912C212C312CFFE10F
S1130C20F315D8F08B3279F038F4803279F08332CE
S1130C30A1F4232D20611DC08D3261F0803369F44D
S1130C40232D216016C0832D8260382EE32DE460AD
S1130C503E2E2AC0F32DF8601DC037FC2DC020EDB8
S1130C60280F2A3040F08E32B9F436FC75C1232D9A
S1130C702064322E19C036FE06C08AE0989E200DEC
S1130C801124922E11C0EAE02E9E200D1124222E52
S1130C90F32DF0623F2E08C08C3621F4832D80683A
S1130CA0382E02C0883641F4F70193FD859193FFF5
S1130CB081917F018111B3CF982F9F7D95549330FB
S1130CC028F40C5F1F4F9FE399830DC0833631F0E6
S1130CD0833771F0833509F055C020C0F801808155
S1130CE089830E5F1F4F88248394912C530112C073
S1130CF02801F2E04F0E511CF801A080B18036FEAD
S1130D0003C0692D70E002C06FEF7FEFC50189DE7B
S1130D104C018201F32DFF773F2E15C0280122E0FC
S1130D20420E511CF801A080B18036FE03C0692D2B
S1130D3070E002C06FEF7FEFC5012DD14C01F32DA0
S1130D40F0683F2E820133FC19C0822D90E0881692
S1130D509906A0F4B60180E290E028D12A94F5CF58
S1130D60F50137FC859137FE81915F01B60190E072
S1130D701DD121102A9421E0821A91088114910432
S1130D8079F7E1C0843611F0893639F5F80137FE78
S1130D9007C060817181828193810C5F1F4F08C0FD
S1130DA060817181072E000C880B990B0E5F1F4F19
S1130DB0F32DFF763F2E97FF09C09095809570958F
S1130DC061957F4F8F4F9F4FF0683F2E2AE030E0B0
S1130DD0A30128D1882E861844C0853731F4232DE9
S1130DE02F7EB22E2AE030E025C0932D997FB92EB4
S1130DF08F36C1F018F4883579F0AEC0803719F019
S1130E00883721F0A9C0E92FE061BE2EB4FE0DC0E1
S1130E10FB2DF460BF2E09C034FE0AC0292F2660C2
S1130E20B22E06C028E030E005C020E130E002C068
S1130E3020E132E0F801B7FE07C060817181828150
S1130E4093810C5F1F4F06C06081718180E090E048
S1130E500E5F1F4FA301E6D0882E8618FB2DFF7767
S1130E603F2E36FE0DC0232D2E7FA22E891458F45A
S1130E7034FE0BC032FC09C0832D8E7EA82E05C023
S1130E80B82CA32C03C0B82C01C0B92CA4FE0FC0ED
S1130E90FE01E80DF11D8081803321F49A2D997EA5
S1130EA0A92E09C0A2FE06C0B394B39404C08A2D2F
S1130EB0867809F0B394A3FC10C0A0FE06C0B21457
S1130EC080F4280C922C9B180DC0B21458F4B6016F
S1130ED080E290E06BD0B394F8CFB21418F42B18DE
S1130EE002C0982C212CA4FE0FC0B60180E390E030
S1130EF05DD0A2FE16C0A1FC03C088E790E002C04A
S1130F0088E590E0B6010CC08A2D867851F0A1FEE8
S1130F1002C08BE201C080E2A7FC8DE2B60190E042
S1130F2045D0891430F4B60180E390E03FD09A9420
S1130F30F8CF8A94F301E80DF11D8081B60190E0A9
S1130F4035D08110F6CF222009F44ECEB60180E2CE
S1130F5090E02CD02A94F7CFF6018681978102C0C5
S1130F608FEF9FEF2B960FB6F894DEBF0FBECDBF69
S1130F70DF91CF911F910F91FF90EF90DF90CF9071
S1130F80BF90AF909F908F907F906F905F904F90A5
S1130F903F902F900895FC0105906150704001101E
S1130FA0D8F7809590958E0F9F1F08950F931F93E8
S1130FB0CF93DF93FB01238121FD03C08FEF9FEFCC
S1130FC02CC022FF16C046815781248135814217E7
S1130FD0530744F4A081B1819D012F5F3F4F3183BA
S1130FE020838C93268137812F5F3F4F378326835D
S1130FF014C08B01EC01FB010084F185E02D1995EF
S1131000892BE1F6D80116968D919C91179701963C
S113101017969C938E931697CE01DF91CF911F91D3
S11310200F910895FA01AA27283051F1203181F156
S1131030E8946F936E7F6E5F7F4F8F4F9F4FAF4FDC
S1131040B1E03ED0B4E03CD0670F781F891F9A1FEF
S1131050A11D680F791F8A1F911DA11D6A0F711DA3
S1131060811D911DA11D20D009F468943F912AE0AF
S1131070269F11243019305D3193DEF6CF01089597
S1131080462F4770405D4193B3E00FD0C9F7F6CFC8
S1131090462F4F70405D4A3318F0495D31FD405290
S11310A0419302D0A9F7EACFB4E0A6959795879526
S11310B077956795BA95C9F7009761057105089505
S11310C09B01AC010A2E06945795479537952795B1
S11310D0BA95C9F7620F731F841F951FA01D089549
S10710E0F894FFCFAE
S11310E46300000000000001000000000000EF04A1
S11310F400000000000200000000E60400000000FC
S11311044661696C656420746F207072696E742022
S11311144C434420737472696E672E20546F6F209D
S1131124626967206F72206C61636B73204E554C47
S11311344C2D7465726D696E61746F722E0D004C62
S11311444344206F75747075743A20272573270DF2
S11311540A0043686F6F736520666C6F6F723A00A0
S1131164257300466C6F6F722043686F73656E0D50
S11311740053616D6520666C6F6F72004375727203
S1131184656E7420666C6F6F723A00496E69746997
S1131194616C697A696E67204C4344206472697691
S11311A465720D005265616479004C4344205265B4
S11311B46164792E0D00474F494E4755502D2564DF
S11111C400474F494E47444F574E2D256400B7
S9030000FC
